:100000000C9434000C943E000C943E000C943E0082
:100010000C943E000C943E000C943E000C943E0068
:100020000C943E000C943E000C943E000C943E0058
:100030000C943E000C943E000C943E000C943E0048
:100040000C943E000C943E000C943E000C943E0038
:100050000C943E000C943E000C943E000C943E0028
:100060000C943E000C943E0011241FBECFEFD8E04C
:10007000DEBFCDBF0E9440000C946C000C940000C9
:10008000CFEFD8E0DEBFCDBF0E944B000E945800EA
:100090000E946400FBCF11241FBE80E880936100A2
:1000A00087E080936100579A5F980E945D000895F1
:1000B0008BB190E889278BB9089503E005BD01E075
:1000C00005BB01E006BD089505B301FFFDCF01E0CA
:0C00D00005BB01E006BD0895F894FFCFC9
:00000001FF
