:100000000C9434000C943E000C943E000C943E0082
:100010000C943E000C943E000C943E000C943E0068
:100020000C943E000C943E000C943E000C94C400D2
:100030000C943E000C943E000C943E000C943E0048
:100040000C943E000C943E000C943E000C943E0038
:100050000C943E000C943E000C943E000C943E0028
:100060000C943E000C943E0011241FBECFEFD8E04C
:10007000DEBFCDBF0E9440000C94D0000C94000065
:1000800080E880936100109261000E94B2000E949B
:100090005A000E9470000E949600009106010130F3
:1000A000E1F70E945D000E9479000E949C0010927E
:1000B0000601F3CF249A2C9808950091000103952E
:1000C0000093000111E001130AC000910301013007
:1000D00021F405B110E1012705B91092000108953E
:1000E0001092010110920201259A2D98109203019D
:1000F0000895A0910201B09101011196A09302010F
:10010000B0930101A03A0FE0B00779F405B110E215
:1001100001271092030105FF03C011E010930301B2
:1001200005B9109202011092010108951092040184
:1001300010920501579A0895A0910501B09104010C
:100140001196A0930501B0930401A03A00E0B00716
:1001500041F40BB110E801270BB910920501109280
:1001600004010895009181000A60009381000AEF64
:100170000093880000E00093890000916F00026006
:1001800000936F00789408950F930F920FB60F921B
:1001900001E0009306010F900FBE0F900F9118958C
:0401A000F894FFCF01
:0801A400000000000000000053
:00000001FF
