:100000000C9434000C943E000C943E000C943E0082
:100010000C943E000C943E000C943E000C943E0068
:100020000C943E000C943E000C943E000C943E0058
:100030000C943E000C943E000C943E000C943E0048
:100040000C9458000C943E000C943E000C943E001E
:100050000C943E000C943E000C943E000C943E0028
:100060000C943E000C943E0011241FBECFEFD8E04C
:10007000DEBFCDBF0E9440000C9475000C940000C0
:1000800080E88093610010926100259A2D980E946B
:100090004A00FFCF05B5056005BDA99A00916E0025
:1000A000016000936E0016BC1092000178940895D0
:1000B0001F920F920FB60F9211248F939F938091EE
:1000C0000001839580930001809100018D3330F011
:1000D00085B190E2892785B9109200019F918F9197
:0E00E0000F900FBE0F901F901895F894FFCF51
:0200EE00000010
:00000001FF
